S01300004C6967687453656E736F722E737265639F
S113000029C0000042C0000040C000003EC0000003
S11300103CC000003AC0000038C0000032C10000FB
S113002034C0000032C0000030C000002EC0000008
S11300302CC000002AC0000028C0000026C0000018
S113004024C0000022C0000020C000001EC0000028
S11300501CC0000011241FBECFE5D8E0DEBFCDBF19
S113006010E0A0E6B0E0EEE4F3E002C005900D92EB
S1130070AA38B107D9F720E0AAE8B0E001C01D9280
S1130080AE39B207E1F7EAD060C1BACF8FE081BDE3
S1130090D09AA498A598A698A798A09AA19AA29A4B
S11300A0A39A089523E023BF33E808C032BF28B7DA
S11300B0216028BFA89508B600FEFDCF0197B0F7D0
S11300C013BE0895F8942DE02EBD9BBD8ABD89B75B
S11300D0806189BF78940895662311F0C29A01C0A3
S11300E0C298C39882BB8FEF81BBC49A0000000002
S11300F00000C4980895C298C39A11BA90B3C49AE0
S113010000000000000011BA90B3C49899239CF336
S1130110E3CFBA9ABB9ABC9A80E190E0C3DF60E077
S113012080E3DADF85E090E0BDDF60E080E3D4DFE8
S113013081E090E0B7DF60E08CE3DDDF60E08CE03D
S1130140DADF60E086E0D7DF60E081E0D4CF60E012
S113015081E0D1CFCF93DF93EC018991882329F0FB
S113016061E0C9DF89918111FBCFDF91CF910895BF
S1130170369A349BFECF349A24B135B1822F932F13
S11301800895A09AA19AA29AA39AA49AA59AA89A21
S1130190A998AA98AB98AC98AD9A089580918A00D2
S11301A090918B00019690938B0080938A008091AC
S11301B08A0090918B0080FF08C0A898A99A80EDCE
S11301C097E070DFA998AA9A0DC080918A00909157
S11301D08B0080FD07C0AB98AC9A80ED97E062DF9E
S11301E0AC98AD9AAE9AB3DF89E690E0B3DF88EBC2
S11301F09BE058DFACDF89E790E0ACDFAE98C1DF6D
S113020010928B0010928A00089580918A00909138
S11302108B00019690938B0080938A0080918A00D2
S113022090918B0080FF0AC0A898A99A80ED97E06E
S113023039DFA998AA9AAD98AB9A089580918A005B
S113024090918B0080FD09C0AB98AC9A80ED97E04B
S113025029DFAC98AD9AAA98A89A08955ADF16DFB8
S113026090DF89E790E076DFA798A69A16B881E434
S113027087B9379A88EE93E025DF84E690E012DFB1
S1130280FCCF1F920F920FB60F9211242F933F931E
S11302904F935F936F937F938F939F93AF93BF938A
S11302A0EF93FF939F9B7ADF63DF90939900809392
S11302B09800209198003091990080919A00909133
S11302C09B008217930748F48091980090919900BD
S11302D090939B0080939A0013C0209198003091D2
S11302E0990080916000909161008217930740F01B
S11302F080919800909199009093610080936000A0
S113030020919A0030919B008091980090919900DF
S1130310285C31098217930708F477DF84E690E0BC
S1130320C1DE88B7806188BFFF91EF91BF91AF9123
S11303309F918F917F916F915F914F913F912F91F9
S11103400F900FBE0F901F901895F894FFCFEA
S113034EFF034355523A25690057616C6B2053697C
S113035E676E206973204F4E0057616C6B20536992
S10D036E676E206973204F464600B5
S9030000FC
